:020000040800F2
:10000000A805002055020008550400084D0400080A
:10001000510400089D020008BB0900080000000010
:100020000000000000000000000000009D0100082A
:10003000A102000800000000F1010008E506000828
:100040006F0200086F0200086F0200086F020008CC
:100050006F0200086F0200086F0200086F020008BC
:100060006F0200086F020008E10200086F0200083A
:100070006F0200086F0200086F0200086F0200089C
:100080006F0200086F0200086F0200086F0200088C
:100090006F0200086F0200086F02000815030008D5
:1000A0006F0200086F0200086F0200086F0200086C
:1000B0006F0200086F0200086F0200086F0200085C
:1000C0006F0200086F0200086F0200086F0200084C
:1000D0006F02000885070008B50700086F020008D6
:1000E000A50200086F0200086F0200086F020008F6
:1000F0006F0200086F0200086F0200086F0200081C
:100100006F0200086F0200086F0200086F0200080B
:100110006F0200086F020008810700086F020008E4
:100120006F0200086F0200086F0200086F020008EB
:100130006F0200086F0200086F0200086F020008DB
:100140006F0200086F0200086F0200086F020008CB
:100150006F0200086F0200086F0200086F020008BB
:100160006F0200086F0200086F0200086F020008AB
:100170006F0200086F0200086F0200086F0200089B
:100180006F0200086F020008DFF80CD000F074F86E
:1001900000480047990A0008A80500202A4B196862
:1001A0000868B0E8F04F80F30988BFF36F8F4FF015
:1001B000000080F3118870470000000006480068C6
:1001C000006880F3088862B661B6BFF34F8FBFF353
:1001D0006F8F00DF00BF00BF08ED00E0DFF80C000C
:1001E000016841F470010160704700BF88ED00E0D4
:1001F000EFF30980BFF36F8F134B1A681EF0100FD7
:1002000008BF20ED108A20E9F04F106008B44FF0CD
:10021000500080F31188BFF34F8FBFF36F8F00F052
:100220007DFC4FF0000080F3118808BC1968086855
:10023000B0E8F04F1EF0100F08BFB0EC108A80F34A
:100240000988BFF36F8F704720000020EFF305800F
:10025000704700000648804706480047FEE7FEE773
:10026000FEE7FEE7FEE7FEE7FEE7FEE7FEE7FEE766
:100270001907000889010008064C074D06E0E068F0
:1002800040F0010394E8070098471034AC42F6D3DD
:10029000FFF77EFFF00C0008100D000800BFFEE71E
:1002A0007047000010B54FF4005000F055F800BF43
:1002B0004FF40051084800F0C0F80028F8D0074873
:1002C0000078401C0549087008460078022801DDC6
:1002D0000020087010BD000000080240010000204E
:1002E00010B5102000F038F800BF1021064800F0CB
:1002F000A4F80028F9D00548007820B9044800780F
:10030000C0430349087010BD0010024003000020E4
:100310000400002010B5202000F01EF8402000F05E
:100320001BF82021094800F088F820B90848007817
:10033000C043074908704021044800F07EF820B906
:1003400004480078C0430349087010BD0010024003
:1003500002000020030000200149086070470000EF
:10036000143C0140F0B50A4600210023002400BFE0
:100370003DE0012505FA01F3156805EA03049C42F6
:1003800034D105684F000326BE40B543056015799A
:100390004E00B5400668354305601579012D02D041
:1003A0001579022D16D185684F000326BE40B5434E
:1003B000856055794E00B54086683543856045684F
:1003C00001268E40B5434560456896798E40B6B2A9
:1003D00035434560C5684F000326BE40B543C56040
:1003E000D5794E00B540C6683543C560491C102913
:1003F000BFD3F0BDF0B5002300244D07ED0E02FA87
:1004000005F3CE1000F1200555F826504E07F70EE3
:100410000F26BE40B543CF1000F1200646F8275006
:10042000CE1000F1200555F8265045EA0304CE1001
:1004300000F1200545F82640F0BD02460020136972
:100440000B400BB1012000E00020704700BFFEE729
:1004500000BFFEE77047000070B5002100230F22A7
:10046000C4781CB3174C246804F4E064C4F5E06459
:10047000C4F30721C1F10404E3B20A4144789C406B
:10048000E1B28478144021430C07210E0E4C05780C
:100490006155047804F01F050124AC4005786D1106
:1004A000AD0005F1E025C5F8004109E0047804F04D
:1004B0001F050124AC40054D0678761145F826400D
:1004C00070BD00000CED00E000E400E080E100E021
:1004D00029B1064A12680243044B1A6004E0034A39
:1004E00012688243014B1A607047000030380240A6
:1004F00029B1064A12680243044B1A6004E0034A19
:1005000012688243014B1A60704700004038024075
:10051000F0B5002100220024022500260223324FDC
:100520003F6807F00C0121B1042905D0082937D113
:1005300005E02E4F076036E02D4F076033E02A4F6D
:100540003F1F3F68C7F38056274F3F1F3F6807F0A4
:100550003F036EB1264FB7FBF3F7DFF88CC0ACF169
:10056000040CDCF800C0CCF3881C07FB0CF40CE096
:100570001E4FB7FBF3F7DFF870C0ACF1040CDCF8EA
:1005800000C0CCF3881C07FB0CF4174F3F1F3F68DB
:10059000C7F301477F1C7D00B4FBF5F7076002E05D
:1005A000124F076000BF00BF0F4F3F6807F0F00118
:1005B0000909104F7A5C0768D74047600A4F3F68C7
:1005C00007F4E051890A0B4F7A5C4768D74087608F
:1005D000054F3F6807F46041490B064F7A5C476856
:1005E000D740C760F0BD0000083802400024F40086
:1005F00040787D01100000200CB500200190009093
:100600003448006840F480303249086000BF314807
:10061000006800F4003000900198401C01900098A0
:1006200018B90198B0F5A04FF1D12A48006800F43C
:10063000003010B10120009001E0002000900098EF
:10064000012846D123484030006840F080502149BD
:10065000403108602048006840F440401E4908606E
:100660001C48083000681B490831086008460068CB
:1006700040F4004008600846006840F4A05008605C
:100680001648091F0860081F006840F08070091FA5
:10069000086000BF0F48006800F000700028F9D023
:1006A00040F205700E4908600A480830006820F0E2
:1006B00003000849083108600846006840F002005D
:1006C000086000BF03480830006800F00C000828EC
:1006D000F8D10CBD003802400070004008544007BB
:1006E000003C024010B500BF502080F31188BFF3DA
:1006F0004F8FBFF36F8F00BF00F056FA18B14FF065
:1007000080500449086000BF002080F3118800BFBA
:1007100010BD000004ED00E010B51548006840F47D
:100720007000134908601348006840F00100114947
:10073000086000200F49083108600E4800680E4923
:1007400008400C4908600D48091D0860081F006832
:1007500020F48020091F0860002006490C31086041
:10076000FFF74AFF4FF0006001498039086010BD73
:1007700088ED00E000380240FFFFF6FE1030002454
:100780007047000010B540F22551094800F056F8B6
:1007900060B140F22551064800F035F8044800F0F9
:1007A00003F904462146024800F003F910BD000099
:1007B0000010014010B540F225510B4800F03EF802
:1007C00080B1094800F0F0F80849094A12788854C5
:1007D00007480078401C0649087040F2255102483D
:1007E00000F008F810BD0000004400405C0000204C
:1007F0000800002001F40072B2F5007F00D100BFB4
:10080000CA430280704710B50022002340F66A14E4
:10081000A14200D100BF0A1201249440A3B2DC43DC
:10082000048010BD21B1828942F40052828104E02B
:1008300082894DF6FF731A408281704770B5024677
:10084000002400230025002040F66A16B14200D1A2
:1008500000BFC1F3421501F01F03012606FA03F39E
:10086000012D02D19689334006E0022D02D1168A6D
:10087000334001E0968A33400C12012606FA04F454
:100880001688344013B10CB1012000E0002070BD87
:10089000F0B50346002400260025002040F66A1724
:1008A000B94200D100BF1846C1F3421401F01F063F
:1008B000012707FA06F5012C01D10C3004E0022CC7
:1008C00001D1103000E014301AB107682F430760DF
:1008D00002E00768AF430760F0BD00002DE9FF4765
:1008E00005460E460024A046A1460027B08900B167
:1008F00000BF2C8A24F44054F08804432C82AC8935
:1009000041F20C608443B0883189084371890843FF
:100910000443AC81AC8A24F44074B0890443AC82B3
:100920006846FFF7F5FD1E48854202D01D48854206
:1009300002D1DDF80C8001E0DDF80880A88900F420
:10094000004030B14FEAC80031684900B0FBF1F90E
:1009500005E04FEAC80031688900B0FBF1F9642076
:10096000B9FBF0F004012009642101FB1097A8896C
:1009700000F4004040B1322000EBC700B0FBF1F0C2
:1009800000F00700044308E0322000EB0710642168
:10099000B0FBF1F000F00F0004432C81BDE8FF87AD
:1009A000001001400014014001468888C0F308008F
:1009B0007047C1F308028280704700BFFEE702E083
:1009C00008C8121F08C1002AFAD1704770470020DA
:1009D00001E001C1121F002AFBD1704700B587B0AA
:1009E00001210820FFF774FD01214804FFF780FD75
:1009F00002208DF8180000208DF81A006020059064
:100A000001208DF81B0002208DF8190005A920484F
:100A1000FFF7A8FC072205211D48FFF7EBFC072282
:100A200006211B48FFF7E6FC4FF4E130019000205F
:100A3000ADF810000C20ADF80E000020ADF80C0051
:100A4000ADF80A00ADF8080001A91248FFF746FF0B
:100A5000012240F225510F48FFF71AFF26208DF89A
:100A6000000000208DF8010002208DF80200012016
:100A70008DF803006846FFF7EFFC40210548FFF7BB
:100A8000B9FE01210348FFF7CDFE07B000BD00000D
:100A9000000C02400044004000BF00BF00BFFFF751
:100AA0009DFF00BFFEE700000A490968096809B90F
:100AB000012100E0002121B14FF0FF31064A116011
:100AC00006E004490968C968C868034A41681160BA
:100AD00070470000240000205000002001460A69F1
:100AE000D1E901309860D1E901035860506888422B
:100AF00001D188685060002008611068401E1060B5
:100B00001068704742684A6093688B6093685960C8
:100B10009160086103685B1C036070471D480068B2
:100B200018B101201C49086032E000201A49086011
:100B30001A480068B0FA80F0C0F11F0101EB810093
:100B4000174A52F8200008B1012000E0002050B9F7
:100B500000BF502080F31188BFF34F8FBFF36F8F1A
:100B600000BF00BFFEE701EB81020D4B03EB8200EB
:100B700042685268426000F108024368934202D121
:100B80004268526842604268D268064B1A6000BFF1
:100B9000704700005800002044000020380000206A
:100BA000DC000020200000202DE9F0414FF000087B
:100BB00044480068002877D143480068451C4248F3
:100BC000056015BB41480068006808B9012000E0D5
:100BD000002050B900BF502080F31188BFF34F8F21
:100BE000BFF36F8F00BF00BFFEE738480768384883
:100BF0000068364908603648076036480068401C7F
:100C000034490860FFF750FF00BF33480068854251
:100C10003CD300BF2D480068006808B9012000E0FF
:100C2000002020B14FF0FF302B4908602DE027480D
:100C30000068C068C4686668B54202D2264806608B
:100C400023E0201DFFF74AFFA06A18B104F1180045
:100C5000FFF744FF94F82C10012088401F490968D1
:100C600008431E490860E16A01EB81011C4A02EB5E
:100C70008100211DFFF746FF1A49E06A0968C96A29
:100C80008842C7D34FF00108C4E700BF1548006889
:100C9000C06A00EB8000124951F82000012801D9F8
:100CA0004FF0010805E0FFE70F480068401C0E49BF
:100CB00008600E48006808B14FF001084046BDE8E2
:100CC000F0810000580000203400002024000020A3
:100CD000280000204800002050000020380000209C
:100CE000DC00002020000020400000204400002004
:100CF000100D0008000000205C000000BE09000884
:100D00006C0D00085C0000204C050000CE090008B6
:100D100000000000000000000000000000000000D3
:100D20000000000001020304010203040607080991
:100D300000000000000000000000000000000000B3
:100D400000000000000000000000000000000000A3
:100D50000000000000000000000000000000000093
:0C0D600000000000000000000000000087
:040000050800018965
:00000001FF
